:100000000C942A000C9447000C9447000C94470071
:100010000C94DF020C9447000C9447000C944700AA
:100020000C9447000C9447000C9487020C944700F2
:100030000C9447000C9447000C9447000C94470024
:100040000C9447000C9447000C9447000C94470014
:100050000C94470011241FBECFE5D8E0DEBFCDBF12
:1000600010E0A0E6B0E0E8E1FDE002C005900D92EE
:10007000A638B107D9F720E0A6E8B0E001C01D928C
:10008000AE39B207E1F70E94C1040C948A060C94C1
:100090000000AF92BF92CF92DF92EF92FF920F9348
:1000A0001F93CF93DF93C82FD62F690160E080E0C4
:1000B0000E94690488E790E00E945D04C6010E94E6
:1000C000740466E080E00E9469048BE790E00E947F
:1000D0005D048D2F90E00E9474046CE080E00E942B
:1000E00069048EE790E00E945D048C2F0E94B404A6
:1000F00060E081E00E9469046C2F70E090E080E095
:100100000E94FE0520E030E040E251E40E945405E8
:100110000E94C6056B01EB0110E000E00C171D0703
:1001200004F186010A3011051CF10AE010E05E01BD
:1001300089E0A80EB11CA016B1060CF58AE0C80E25
:10014000D11CCC0DDD1DCC16DD0604F1DF91CF9165
:100150001F910F91FF90EF90DF90CF90BF90AF90E5
:10016000089581E890E00E945D040F5F1F4FD6CF95
:1001700083E890E00E945D040F5F1F4FD3CF81E8BA
:1001800090E00E945D040F5F1F4FD5CF83E890E0A1
:100190000E945D048FEFC81AD80AD5CF413091F084
:1001A00018F0423029F10895E82FF0E0EE0FFF1F1C
:1001B000E059FF4F0190F081E02D80816095682328
:1001C0006083089590E0880F991FFC01E059FF4F6C
:1001D0000190F081E02D3081262F2095232320836C
:1001E00088599F4FDC01ED91FC918081682BE8CF0D
:1001F000E82FF0E0EE0FFF1FE059FF4F0190F08174
:10020000E02DF3CF442319F0413079F00895E82F21
:10021000F0E0EE0FFF1FE859FF4F0190F081E02D55
:1002200080816095682360830895E82FF0E0EE0FE9
:10023000FF1FE859FF4F0190F081E02D8081682B6E
:10024000F2CFE82FF0E0EE0FFF1FE859FF4F0190CB
:10025000F081E02D8081682760830895E82FF0E029
:10026000EE0FFF1FE05AFF4F0190F081E02D8081DB
:10027000682319F4FA011082089581E0FA0180835D
:10028000089512BE83B790919D00892B83BF089576
:10029000813081F018F08230D1F008956836710510
:1002A00029F4433318F0425360E670E063BF409393
:1002B0009D0008956836710529F4433318F04253C0
:1002C00060E670E07FBD6EBD40939C000895683687
:1002D000710529F4433318F0425360E670E0772744
:1002E00076BD65BD40939B000895CF92DF92EF925B
:1002F000FF926A017B01811112C08AEF8CBF0E94BC
:10030000410181E0C81AD108E108F1088FEFC81651
:10031000D806E806F80641F483B7887F83BFFF90CC
:10032000EF90DF90CF90089508B601FEFDCF88B71B
:10033000826088BFE6CF0F938130D9F020F0823001
:1003400011F10F9108958AEF8CBF4093960050935E
:1003500097006093980070939900309391002093D8
:10036000900000939A0089B7826089BF0F910C9426
:1003700041011DBC1CBC8EB59FB520919C00822BF9
:100380009FBD8EBDDECF409392005093930060934B
:1003900094007093950030938F0020938E0014BCCE
:1003A00085B596B520919B00822B96BD85BDC9CFA2
:1003B000813031F018F0823039F008956CBF089523
:1003C00070E07BBD6ABD089563BD0895813031F052
:1003D00018F0823069F008950C9441011DBC1CBCDA
:1003E0008EB59FB520919C00822B9FBD8EBD089538
:1003F00014BC85B596B520919B00822B96BD85BD1A
:100400000895882319F0813029F0089583B7887FF3
:1004100083BF08958EB59FB5887F9FBD8EBD08951B
:10042000AF92BF92CF92DF92EF92FF920F931F9302
:10043000CF93DF9300D000D000D0CDB7DEB75C0102
:100440008B01FE01319686E0DF011D928A95E9F766
:100450008EB59FB580649FBD8EBD1DBC1CBC8EB586
:100460009FB520919C00822B9FBD8EBD9E01295F70
:100470003F4F08B605FEFDCF86B597B581939193A2
:1004800088B7806288BF8EB59FB5B0E48B279FBDCB
:100490008EBDE217F30769F78EB59FB5887F9FBDC4
:1004A0008EBD89819A812B813C81281B390BCD809F
:1004B000DE80C81AD90AFA01C082F12CE12CA4E628
:1004C000B0E00E944505A70196010E942305D501D1
:1004D0002C9360E970ED83E090E0A70196010E9403
:1004E0002305F801208331834283538326960FB678
:1004F000F894DEBF0FBECDBFDF91CF911F910F915A
:10050000FF90EF90DF90CF90BF90AF9008951F9233
:100510000F920FB60F9211242F933F934F935F9337
:100520006F937F938F939F93AF93BF93EF93FF93BB
:1005300080918A0090918B00A0918C00B0918D00E9
:100540000196A11DB11D80938A0090938B00A0930A
:100550008C00B0938D00409196005091970060916F
:1005600098007091990084179507A607B707B1F412
:10057000E0919000F0919100309781F009951092F0
:100580008A0010928B0010928C0010928D00809146
:100590009A00811103C083B7887F83BFFF91EF91D9
:1005A000BF91AF919F918F917F916F915F914F918B
:1005B0003F912F910F900FBE0F901F9018951F9293
:1005C0000F920FB60F9211242F933F934F935F9387
:1005D0006F937F938F939F93AF93BF93EF93FF930B
:1005E0008091860090918700A0918800B091890049
:1005F0000196A11DB11D8093860090938700A09362
:100600008800B093890040919200509193006091CE
:1006100094007091950084179507A607B70779F4A1
:10062000E0918E00F0918F00309749F0099510927B
:100630008600109287001092880010928900FF9126
:10064000EF91BF91AF919F918F917F916F915F914A
:100650004F913F912F910F900FBE0F901F901895C3
:10066000CF93C82F40E062E081E00E94020140E0A9
:1006700064E081E00E940201C4FB442740F960E18C
:1006800080E00E940201C5FB442740F960E280E05F
:100690000E940201C6FB442740F960E480E00E940A
:1006A00002014C2F441F4427441F60E880E00E9451
:1006B000020140E068E081E00E94020187EC90E0E6
:1006C0000197F1F700C0000041E068E081E00E947E
:1006D00002014C2F417060E180E00E940201C1FBE9
:1006E000442740F960E280E00E940201C2FB4427F7
:1006F00040F960E480E00E940201C3FB442740F916
:1007000060E880E00E94020140E068E081E00E9431
:10071000020187EC90E00197F1F700C0000041E092
:1007200068E081E0CF910C940201CF93C82F41E0A3
:1007300062E081E00E94020140E064E081E00E940A
:100740000201C4FB442740F960E180E00E940201FD
:10075000C5FB442740F960E280E00E940201C6FB2D
:10076000442740F960E480E00E9402014C2F441FBE
:100770004427441F60E880E00E94020140E068E0F6
:1007800081E00E94020187EC90E00197F1F700C040
:10079000000041E068E081E00E9402014C2F4170BE
:1007A00060E180E00E940201C1FB442740F960E261
:1007B00080E00E940201C2FB442740F960E480E02F
:1007C0000E940201C3FB442740F960E880E00E94D8
:1007D000020140E068E081E00E94020187EC90E0C5
:1007E0000197F1F700C0000041E068E081E0CF919F
:1007F0000C94020142E06EE081E00E94CE0042E0F3
:1008000060EF80E00E94CE0041E068E081E00E945D
:1008100002012FEF80E792E0215080409040E1F705
:1008200000C0000040E060E180E00E94020141E081
:1008300060E280E00E94020140E060E480E00E940B
:10084000020140E060E880E00E94020140E068E0D0
:1008500081E00E94020187EC90E00197F1F700C06F
:10086000000041E068E081E00E9402018CE20E9409
:1008700030038FE99FE00197F1F700C000008FE09F
:100880000E9430038FE99FE00197F1F700C000005C
:1008900081E00E9430038FE39FE10197F1F700C0F0
:1008A000000086E00E9430038FE99FE00197F1F796
:1008B00000C0000008950C949503CF93DF93EC01E2
:1008C0008991811103C0DF91CF9108950E94950312
:1008D000F7CF882319F0813029F0089580E8860F3A
:1008E0000C94300380ECFBCFCF93DF9368EE73E082
:1008F0000E940F05EC0180E3860F0E949503CE0154
:1009000064E670E00E940F05EC0180E3860F0E9410
:100910009503CE016AE070E00E940F05C82F80E3C6
:10092000860F0E94950380E38C0FDF91CF910C948A
:100930009503CF93DF9364E670E00E940F05EC010E
:1009400080E3860F0E949503CE016AE070E00E946A
:100950000F05C82F80E3860F0E94950380E38C0F5C
:10096000DF91CF910C949503CF936AE00E94030529
:10097000C92F805D0E94950380E38C0FCF910C946A
:100980009503CF93DF9300D000D000D0CDB7DEB772
:1009900042E060E883E00E94CE0040E060E483E053
:1009A0000E94CE0044E368E670E082E00E944801C5
:1009B00043E070E060E081E00E9448010E94FA0399
:1009C00082E00E94E60160E582E00E94D801AE016B
:1009D0004B5F5F4FBE016F5F7F4FCE0106960E9457
:1009E000100229813A814B815C816D818E810E9448
:1009F00049002FEF81EE94E0215080409040E1F7D4
:100A000000C00000EECF991B79E004C0991F961733
:100A100008F0961B881F7A95C9F780950895AA1B40
:100A2000BB1B51E107C0AA1FBB1FA617B70710F0D9
:100A3000A61BB70B881F991F5A95A9F7809590950B
:100A4000BC01CD010895A1E21A2EAA1BBB1BFD011A
:100A50000DC0AA1FBB1FEE1FFF1FA217B307E4079D
:100A6000F50720F0A21BB30BE40BF50B661F771FF5
:100A7000881F991F1A9469F76095709580959095D5
:100A80009B01AC01BD01CF010895A29FB001B39FAE
:100A9000C001A39F700D811D1124911DB29F700D87
:100AA000811D1124911D08950E9468050C94500623
:100AB0000E94490658F00E94420640F029F45F3F28
:100AC00029F00C94390651110C9484060C943F06BD
:100AD0000E94610668F39923B1F3552391F3951BA6
:100AE000550BBB27AA2762177307840738F09F5F4F
:100AF0005F4F220F331F441FAA1FA9F335D00E2EBC
:100B00003AF0E0E832D091505040E695001CCAF728
:100B10002BD0FE2F29D0660F771F881FBB1F2617EB
:100B200037074807AB07B0E809F0BB0B802DBF01C2
:100B3000FF2793585F4F3AF09E3F510578F00C9491
:100B400039060C9484065F3FE4F3983ED4F386950F
:100B500077956795B795F7959F5FC9F7880F911DB2
:100B60009695879597F90895E1E0660F771F881F9E
:100B7000BB1F621773078407BA0720F0621B730B51
:100B8000840BBA0BEE1F88F7E09508950E94CD05FF
:100B90006894B1110C94840608950E94690688F047
:100BA0009F5798F0B92F9927B751B0F0E1F0660F31
:100BB000771F881F991F1AF0BA95C9F714C0B13072
:100BC00091F00E948306B1E008950C948306672F8C
:100BD000782F8827B85F39F0B93FCCF386957795A1
:100BE0006795B395D9F73EF490958095709561958A
:100BF0007F4F8F4F9F4F0895E89409C097FB3EF4B5
:100C000090958095709561957F4F8F4F9F4F992359
:100C1000A9F0F92F96E9BB279395F69587957795D7
:100C20006795B795F111F8CFFAF4BB0F11F460FF97
:100C30001BC06F5F7F4F8F4F9F4F16C0882311F0EF
:100C400096E911C0772321F09EE8872F762F05C003
:100C5000662371F096E8862F70E060E02AF09A959E
:100C6000660F771F881FDAF7880F9695879597F993
:100C7000089597F99F6780E870E060E008959FEF1E
:100C800080EC089500240A94161617061806090623
:100C9000089500240A9412161306140605060895F2
:100CA000092E0394000C11F4882352F0BB0F40F47A
:100CB000BF2B11F460FF04C06F5F7F4F8F4F9F4FBA
:100CC000089557FD9058440F551F59F05F3F71F03C
:100CD0004795880F97FB991F61F09F3F79F08795A3
:100CE0000895121613061406551FF2CF4695F1DF2C
:100CF00008C0161617061806991FF1CF86957105BC
:100D0000610508940895E894BB2766277727CB01EF
:080D100097F90895F894FFCF54
:100D180039003600330030003B003800350032001F
:100D28003A00370034003100463D00543D00443D50
:060D3800002D005F000029
:00000001FF
